:020000040000FA
:040000003CEF00F0E1
:100008004D82D9CF01F0DACF02F0F3CF03F0F4CF6D
:1000180004F09EAA1AD0AECF05F0020E0518D8A497
:1000280002D0000E396E030E0518D8A403D0010EB5
:100038000001F86F3950010D3C0EF324D96E000E03
:10004800F420DA6E05C0DFFF392AF2A207D082B6A3
:1000580082A603D0000E0001F86FF29204C0F4FFEC
:1000680003C0F3FF02C0DAFF01C0D9FF4D921100AF
:0400780008EF0AF093
:100300000001000A006400E8031027435320494E0F
:10031000434F525245435420256400435320434FDA
:1003200052524543542025640052696768743A204C
:100330002575004C6566743A202575005265616428
:0303400079000041
:10034400000E0001DD6F000EB86E000EB96E720E65
:10035400D36ED3A4FED782EC06F041EC0AF017EC7E
:100364000AF034EC0AF04EEC0AF066EC0AF0000EE7
:100374000001D56FC70ED46F000EE66F010EE76F54
:10038400790EE86F0F0EE96F780EEA6F0F0EEB6FC0
:10039400000EEC6FD4C0EDF0D5C0EEF0000EEF6FA0
:1003A400010EF06F770EF16F0F0EF26F760EF36F92
:1003B4000F0EF46F020EF56FD4C0F6F0D5C0F7F04F
:1003C400E60E1B6E000E1C6EEF0E1D6E000E1E6EF2
:1003D400E4EC07F0E60E1B6E000E1C6EEF0E1D6EB5
:1003E400000E1E6E36EC09F0E60E1B6E000E1C6E3F
:1003F400EF0E1D6E000E1E6E36EC09F0F288030E31
:100404000001F86F13D0010EC7EC09F0C40E126E90
:10041400000E136E3C0E146E030E156EC8EC05F040
:10042400C40E0A6E000E0B6EAFEC09F0030E000151
:10043400F819D8B4E8D7000EDC6F000EDB6F2ED1AC
:10044400DE0E066E000E076E18EC04F0DE0E206E53
:10045400000E216EF7EC06F0000E0001D96F320E8B
:10046400D86F20EEE0F0DECF33F0DDCF34F0331E72
:10047400341E334A342ADE513324D66FDF513420FC
:10048400D76FDF510AE1650EDE5DD8B006D0E151C9
:1004940004E1650EE05DD8A004D0000ED96F140EFF
:1004A40003D0000ED96F050ED86FD8C033F0D9C071
:1004B40034F0331E341E334A342A3350D65DD751B8
:1004C400800A356E3450800A3558D8B036D0DB05F2
:1004D400DC11D8B40AD0E60E1B6E000E1C6EEF0EB3
:1004E4001D6E000E1E6E36EC09F0000E0001DC6F6E
:1004F400010EDB6FDD2BDD51020D600EF324D96E8E
:10050400000EF420DA6EDBC0DEFFDCC0DDFFE60E99
:100514001B6E000E1C6EEF0E1D6E000E1E6E99EC0F
:1005240007F0050E346E0F0E336EF10EE82EFED773
:10053400332EFCD7342EFAD7B0D00001D651D85D73
:10054400D951800A336ED751800A3358D8B037D086
:10055400020EDB19DC11D8B40AD0E60E1B6E000EB5
:100564001C6EEF0E1D6E000E1E6E36EC09F0000EB2
:100574000001DC6F020EDB6FDD2BDD51020D600E1E
:10058400F324D96E000EF420DA6EDBC0DEFFDCC08B
:10059400DDFFE60E1B6E000E1C6EEF0E1D6E000ED0
:1005A4001E6E4EEC07F0050E346E0F0E336EF10E18
:1005B400E82EFED7332EFCD7342EFAD76ED00001A6
:1005C400DF510AE1C80EDE5DD8B006D0E15104E186
:1005D400C80EE05DD8A037D0030EDB19DC11D8B407
:1005E4000AD0E60E1B6E000E1C6EEF0E1D6E000E82
:1005F4001E6E36EC09F0000E0001DC6F030EDB6F9B
:10060400DD2BDD51020D600EF324D96E000EF420B3
:10061400DA6EDBC0DEFFDCC0DDFFE60E1B6E000E13
:100624001C6EEF0E1D6E000E1E6EE4EC07F0050E40
:10063400346E0F0E336EF10EE82EFED7332EFCD738
:10064400342EFAD72AD0020E0001DB19DC11D8B4FB
:100654000AD0E60E1B6E000E1C6EEF0E1D6E000E11
:100664001E6E36EC09F0000E0001DC6F020EDB6F2B
:10067400E60E1B6E000E1C6EEF0E1D6E000E1E6E3F
:100684004EEC07F0050E346E0F0E336EF10EE82EAD
:10069400FED7332EFCD7342EFAD700F00001F851E0
:1006A400D8A4BFD0CDD6E60E1B6E000E1C6EEF0E86
:1006B4001D6E000E1E6E36EC09F03C0E0B6E000E25
:1006C4000C6E3C0E0D6E000E0E6EBCEC08F01A0E95
:1006D400336EF80EE82EFED7332EFCD700D0000E72
:1006E4000001DA6F8ED0DA51336E346A331E341E51
:1006F400334A342ADD51356E366A33503526345048
:100704003622D89035363636600E3524D96E000E32
:100714003620DA6EDE04DE10D8A40BD0E60E1B6E93
:10072400000E1C6EEF0E1D6E000E1E6E4EEC07F0DA
:100734005AD00001DA51336E346A331E341E334A00
:10074400342ADD51356E366A33503526345036221C
:10075400D89035363636600E3524D96E000E3620E4
:10076400DA6E020EDE18DE10D8A40BD0E60E1B6E75
:10077400000E1C6EEF0E1D6E000E1E6E99EC07F03F
:1007840032D00001DA51336E346A331E341E334AD8
:10079400342ADD51356E366A3350352634503622CC
:1007A400D89035363636600E3524D96E000E362094
:1007B400DA6E030EDE18DE10D8A40BD0E60E1B6E24
:1007C400000E1C6EEF0E1D6E000E1E6E2FEC08F058
:1007D4000AD0E60E1B6E000E1C6EEF0E1D6E000E90
:1007E4001E6E36EC09F0050E346E0F0E336EF10EEC
:1007F400E82EFED7332EFCD7342EFAD700F00001B2
:10080400DA2BDD51DA5DD8A06ED7030EF86FE60E51
:100814001B6E000E1C6EEF0E1D6E000E1E6E36EC6F
:1008240009F00001F805D8A401D63DD706C0D9FFC8
:1008340007C0DAFF10EE04F00650E1260750E2226A
:10084400DECFE6FFDDCFE5FF20EE02F00650D9262D
:100854000750DA2210EE06F00650E1260750E22295
:10086400DECFE6FFDDCFE5FF665067CF08F0096A0B
:1008740008C009F0086A0812000E091206C0D9FF60
:1008840007C0DAFF08C0DEFF09C0DDFF685069CF8A
:1008940008F0096A08C009F0086A0812000E091273
:1008A40020EE02F00650D9260750DA2208C0DEFFF7
:1008B40009C0DDFF20EE04F00650D9260750DA22E5
:1008C40006C0E1FF07C0E2FFDE50E61817E1DE5084
:1008D400E618D8A413D006C0D9FF07C0DAFF010E6A
:1008E400DB500CE1C90EDE5CD8B008D006C0D9FFDD
:1008F40007C0DAFF000EDE6E000EDD6E20EE06F09D
:100904000650D9260750DA2210EE02F00650E126EE
:100914000750E222DE50E6181BE1DE50E618D8A4A8
:1009240017D020EE02F00650D9260750DA22010E25
:10093400DB500EE1C90EDE5CD8B00AD020EE02F026
:100944000650D9260750DA22000EDE6E000EDD6E48
:1009540006C0D9FF07C0DAFFDECF08F0DDCF09F00B
:10096400060E0A6ED890093208320A2EFBD706C04A
:10097400D9FF07C0DAFF08C0DEFF09C0DDFF06C0EB
:10098400D9FF07C0DAFF010EDB5004E1C90EDE5CBB
:10099400D8A008D006C0D9FF07C0DAFFC80EDE6EA3
:1009A400000EDD6E20EE02F00650D9260750DA2242
:1009B400DECF08F0DDCF09F0060E0A6ED8900932BA
:1009C40008320A2EFBD720EE02F00650D926075033
:1009D400DA2208C0DEFF09C0DDFF20EE02F0065077
:1009E400D9260750DA22010EDB5004E1C90EDE5C81
:1009F400D8A0120020EE02F00650D9260750DA22C1
:100A0400C80EDE6E000EDD6E120020EE01F01450F2
:100A1400D9261550DA22DF50D8B434D020EE07F0AE
:100A24001450D9261550DA22DECF16F0DDCF17F098
:100A340014C0D9FF15C0DAFFDF50186E1850066EC7
:100A4400076A20EE07F01450D9261550DA22DECFBB
:100A540008F0DDCF09F0F5EC09F006C00CF007C092
:100A64000DF0000E0F6E640E0E6E7AEC08F00C1E84
:100A74000D1E0C4A0D2A16500C24196E17500D2009
:100A84001A6E23D014C0D9FF15C0DAFFDF50166EDA
:100A94001650066E076A20EE07F01450D92615503A
:100AA400DA22DECF08F0DDCF09F0F5EC09F006C05C
:100AB4000CF007C00DF0000E0F6E640E0E6E7AEC93
:100AC40008F00CC019F00DC01AF019C016F01AC0C5
:100AD40017F0D89016361736D8901636173616C033
:100AE40019F017C01AF020EE02F01450D926155050
:100AF400DA22DECF16F0DDCF17F016C0D9FF17C00B
:100B0400DAFF19C0DFFF20EE04F01450D926155087
:100B1400DA22DECF16F0DDCF17F016C0D9FF17C0EA
:100B2400DAFF1A503F0BDF6E20EE01F01450D92685
:100B34001550DA22DF50D8B414D020EE06F0145049
:100B4400D9261550DA22DF50166E010E176E162ABA
:100B540002D0D8901736162EFCD717508A108A6EFA
:100B6400120020EE06F01450D9261550DA22DF5078
:100B7400166E010E176E162A02D0D8901736162E4E
:100B8400FCD71750FF0A8A148A6E1200160E1A6ECA
:100B9400000E1B6EA2D0250E1F18D8B409D012C0A7
:100BA400D9FF13C0DAFF1FC0DFFF124A132A95D002
:100BB400000E1C6E02D01C8C17D014C0F6FF15C09A
:100BC400F7FF144A152A0800F5CF1FF01F50000A3A
:100BD400D8B48FD0640AD8B407D00D0AD8B404D0DE
:100BE4001C0AD8B4E8D779D01CBC15D01AC0D9FFD8
:100BF4001BC0DAFFDECF1DF0DDCF1EF0020E1A2679
:100C0400000E1B221EAE13D0030E1C121D6C1E1EE2
:100C1400D8B01E2A0CD01AC0D9FF1BC0DAFFDECF11
:100C24001DF0DDCF1EF0020E1A26000E1B22010E4F
:100C34001F6E050E1F18D8B412D01F50020D010EDE
:100C4400F324F66E030EF420F76E0900F5501D5CD4
:100C54000900F5501E58D8A002D01F2AEAD71CC09C
:100C640018F0030E1816D8B408D012C0D9FF13C058
:100C7400DAFF2D0EDF6E124A132A1FC019F029D095
:100C84001950020D010EF324F66E030EF420F76ED4
:100C94000900F5CF08F00A00F5CF09F01DC006F0F1
:100CA4001EC007F065EC09F006C00DF007C00EF099
:100CB400000E106E0A0E0F6E8EEC09F00D50300F00
:100CC4001F6E12C0D9FF13C0DAFF1FC0DFFF124A24
:100CD400132A19061928D8A4D3D714C0F6FF15C0AF
:100CE400F7FF144A152A0800F5CF1FF01F50D8A4A7
:100CF40052D712C0D9FF13C0DAFF000EDF6E120004
:100D0400000E896E000E8B6E000E8C6E000E926EBD
:100D1400000E946E000E956E270E0A6EF50EE82EE8
:100D2400FED70A2EFCD700F0030EFAEC08F00D0EE5
:100D34000A6EFC0EE82EFED70A2EFCD7030EFAEC40
:100D440008F0850EE82EFED700F0030EFAEC08F04A
:100D5400210EE82EFED700F0020EFAEC08F0210E68
:100D6400E82EFED700F0000E086E280EDFEC09F026
:100D7400060E0A6E300EE82EFED70A2EFCD700D0DF
:100D8400000E086E080EDFEC09F0060E0A6E300E37
:100D9400E82EFED70A2EFCD700D0000E086E010EF6
:100DA400DFEC09F0060E0A6E300EE82EFED70A2E8E
:100DB400FCD700D0000E086E060EDFEC09F0060E1C
:100DC4000A6E300EE82EFED70A2EFCD700D0000E95
:100DD400086E0C0EDFEC09F0060E0A6E300EE82EDB
:100DE400FED70A2EFCD700D0120026EC0AF0010E22
:100DF400C7EC09F0230E126E000E136E330E146E40
:100E0400030E156E20C0D9FF21C0DAFFDECF16F025
:100E1400DDCF17F0C8EC05F0230E0A6E000E0B6E42
:100E2400AFEC09F0020EC7EC09F0230E126E000EAF
:100E3400136E290E146E030E156E20EE02F0205070
:100E4400D9262150DA22DECF16F0DDCF17F0C8EC18
:100E540005F0230E0A6E000E0B6EAFEC09F0820E45
:100E6400226EDE0EE82EFED7222EFCD7820E226ED4
:100E7400DE0EE82EFED7222EFCD7820E226EDE0E68
:100E8400E82EFED7222EFCD7820E226EDE0EE82E2E
:100E9400FED7222EFCD7120020EE01F01B50D926DB
:100EA4001C50DA22010EDF6E20EE01F01D50D9260F
:100EB4001E50DA22000EDF6E2BD01BC0D9FF1CC0DF
:100EC400DAFF320EDF6005D01BC0D9FF1CC0DAFF89
:100ED400DF2A1DC0D9FF1EC0DAFF320EDF6005D045
:100EE4001DC0D9FF1EC0DAFFDF2A1BC014F01CC0CE
:100EF40015F007EC05F01DC014F01EC015F007EC4A
:100F040005F00D0E1F6EFC0EE82EFED71F2EFCD72B
:100F14001BC0D9FF1CC0DAFF310EDF64CED71DC061
:100F2400D9FF1EC0DAFF310EDF64C7D7120020EEEE
:100F340001F01B50D9261C50DA22000EDF6E20EE81
:100F440001F01D50D9261E50DA22010EDF6E2BD07F
:100F54001BC0D9FF1CC0DAFF320EDF6005D01BC0F6
:100F6400D9FF1CC0DAFFDF2A1DC0D9FF1EC0DAFF7B
:100F7400320EDF6005D01DC0D9FF1EC0DAFFDF2AA4
:100F84001BC014F01CC015F007EC05F01DC014F0D4
:100F94001EC015F007EC05F00D0E1F6EFC0EE82EBA
:100FA400FED71F2EFCD71BC0D9FF1CC0DAFF310EA1
:100FB400DF64CED71DC0D9FF1EC0DAFF310EDF6457
:100FC400C7D7120020EE01F01B50D9261C50DA229C
:100FD400000EDF6E20EE01F01D50D9261E50DA22DD
:100FE400000EDF6E2BD01BC0D9FF1CC0DAFF5A0ED7
:100FF400DF6005D01BC0D9FF1CC0DAFFDF2A1DC08B
:10100400D9FF1EC0DAFF5A0EDF6005D01DC0D9FF1C
:101014001EC0DAFFDF2A1BC014F01CC015F007EC59
:1010240005F01DC014F01EC015F007EC05F00D0E00
:101034001F6EFC0EE82EFED71F2EFCD71BC0D9FF57
:101044001CC0DAFF590EDF64CED71DC0D9FF1EC005
:10105400DAFF590EDF64C7D7120020EE01F01B50EF
:10106400D9261C50DA22010EDF6E20EE01F01D504D
:10107400D9261E50DA22010EDF6E2BD01BC0D9FFF9
:101084001CC0DAFF5A0EDF6005D01BC0D9FF1CC09C
:10109400DAFFDF2A1DC0D9FF1EC0DAFF5A0EDF6057
:1010A40005D01DC0D9FF1EC0DAFFDF2A1BC014F013
:1010B4001CC015F007EC05F01DC014F01EC015F09F
:1010C40007EC05F00D0E1F6EFC0EE82EFED71F2E4A
:1010D400FCD71BC0D9FF1CC0DAFF590EDF64CED782
:1010E4001DC0D9FF1EC0DAFF590EDF64C7D7120036
:1010F400000E116E0FAE06D00E6C0F1ED8B00F2A64
:10110400010E116E0DAE06D00C6C0D1ED8B00D2A5A
:10111400010E111A000E136E000E126E0E500F10F7
:10112400D8B41CD0010E106E04D0D8900E360F36F1
:10113400102A0FAEFAD7D890123613360E500C5C24
:101144000F500D58D8A005D00E500C5E0F500D5AFC
:101154001280D8900F320E32102EEDD71150D8B421
:1011640004D0126C131ED8B0132A12C00CF013C092
:101174000DF0120026EC0AF0010EC7EC09F002D0C3
:101184000B4A0C2A0BC0D9FF0CC0DAFF030EDE1881
:10119400D8B412D0F5D7010E086E20EE01F00D5030
:1011A400D9260E50DA22DF50DFEC09F0210EE82EAA
:1011B400FED700F00D4A0E2AFE0E0F6EFF0E106EC3
:1011C4000BC011F00CC012F00F5011261050122257
:1011D400010E0D24136E000E0E20146E1150135CBC
:1011E40012501458D8A0D7D7020EC7EC09F0120039
:1011F400076E07C006F0010E061606468250061852
:10120400FD0B0618826E07C006F0D8900632010E58
:1012140006160646064682500618FB0B0618826E12
:1012240007C006F0D8900632D8900632010E061692
:1012340083500618FE0B0618836E07C006F0D8907C
:101244000632D8900632D8900632010E06160646AB
:1012540083500618FD0B0618836E5BEC0AF0030E30
:10126400E82EFED700F012001FD01BC0D9FF1CC00F
:10127400DAFF000EDF6E1DC0D9FF1EC0DAFF000EBC
:10128400DF6E1BC014F01CC015F007EC05F01DC088
:1012940014F01EC015F007EC05F0030E1F6E980E37
:1012A400E82EFED71F2EFCD71DC0D9FF1EC0DAFFC3
:1012B400DF50D8A4DAD71BC0D9FF1CC0DAFFDF5037
:1012C400D8B41200D2D7000E0B6E000E0A6E08506E
:1012D4000910D8B41CD0010E0C6E04D0D890083676
:1012E40009360C2A09AEFAD7D8900A360B360850BC
:1012F400065C09500758D8A005D00850065E09506E
:10130400075A0A80D890093208320C2EEDD70AC049
:1013140006F00BC007F012000F501010D8B418D00C
:10132400010E116E04D0D8900F361036112A10AE6B
:10133400FAD70F500D5C10500E58D8A004D00F509F
:101344000D5E10500E5AD89010320F32112EF1D774
:101354000DC00DF00EC00EF012000FD0010E086E7D
:101364000AC0D9FF0BC0DAFFDF50DFEC09F00A4AEC
:101374000B2A210EE82EFED700F00AC0D9FF0BC0BD
:10138400DAFFDF50D8B41200E9D70A6E0A04D8A4F1
:1013940006D0000E086E800EDFEC09F009D0020EB4
:1013A4000A18D8A405D0000E086EC00EDFEC09F0B0
:1013B400210EE82EFED700F01200096E08B002D00C
:1013C400809C01D0808C09380F0BFAEC08F0060ED3
:1013D400E82EFED700D00950FAEC08F0210EE82ED2
:1013E400FED700F0120006500802F3CF0AF0F4CF43
:1013F4000BF006500902F3500B2607500802F35075
:101404000B260AC006F00BC007F012000001F86BAF
:1014140000EE39F0140EEE6AE806FDE14D904D92AF
:10142400000EF86E0001A2EF01F0000E936E000EA4
:101434007F6E800E7E6E7F0E6F6E000E6E6EC70E18
:101444007B6E000E7A6E1200000E086E010EDFEC49
:1014540009F0060E0A6E300EE82EFED70A2EFCD7CF
:1014640000D01200000E896E0C0E926E460E636E52
:10147400460E626E090EB76E180E606E1200000EF4
:10148400B76EB79EB79CB750E70B1009B76EB79A03
:10149400B794B792B78012009450C009946ECC0EE2
:1014A400AF6E000EB06EAA86AC84AB88AB8EAC8AED
:1014B40012008280030EE82EFED700F08290030E05
:1014C400E82EFED700F01200AE50AE50AE509D8A0A
:0C14D400F28CF28EF088F288F088120092
:020000040020DA
:08000000FFFFFFFFFFFFFFFF00
:020000040030CA
:0E000000FFC80F3F3C1D81FF0FC00FE00F40F7
:00000001FF
