:020000040000FA
:04000000C2EF07F054
:100300000052696768743A202575004C6566743A36
:0503100020257500002E
:10031600000165BF91EF01F093EF01F096EF01F058
:10032600669396EF01F065BFA3EF01F0655106E114
:100336006405D8B0A1EF01F0A3EF01F0A9EF01F039
:10034600000E2F6E010E2E6EADEF01F064C02EF082
:1003560065C02FF062C030F063C031F01EC032F0CD
:100366001FC033F020C034F021C035F022C036F073
:1003760023C037F024C038F025C039F0000E3B6E9C
:100386001F0E3A6E680E3A24D96E000E3B20DA6EC6
:10039600000EDF6E47EF02F03A06D8A03B06680E65
:1003A6003A24D96E000E3B20DA6E32C001F033C01B
:1003B60002F034C003F035C004F036C005F037C093
:1003C60006F038C007F039C008F00A0E096E000EB4
:1003D6000A6E000E0B6E000E0C6E000E0D6E000EF9
:1003E6000E6E000E0F6E000E106E68EC04F001C06B
:1003F60026F002C027F003C028F004C029F005C08B
:100406002AF006C02BF007C02CF008C02DF02650AD
:10041600300FDF6E2E06D8A02F063006D8A0310684
:1004260032C001F033C002F034C003F035C004F02E
:1004360036C005F037C006F038C007F039C008F0FE
:100446000A0E096E000E0A6E000E0B6E000E0C6E82
:10045600000E0D6E000E0E6E000E0F6E000E106E6C
:1004660071EC03F001C032F002C033F003C034F087
:1004760004C035F005C036F006C037F007C038F0C6
:1004860008C039F047EF02F03A503B10D8B44EEFAF
:1004960002F050EF02F087EF02F0325033103410C2
:1004A60035103610371038103910D8A45DEF02F029
:1004B6005FEF02F0CFEF01F02FBE6CEF02F02F508E
:1004C60006E12E04D8B06AEF02F06CEF02F0CFEF2F
:1004D60001F031BE77EF02F0315008E13004D8A0C8
:1004E60077EF02F079EF02F087EF02F0000166B3D2
:1004F6007FEF02F081EF02F0CFEF01F087EF02F01D
:1005060087EF02F087EF02F01CC011F01DC012F059
:10051600680E3A24136E000E3B20146E30C015F0A0
:1005260031C016F049EC05F011C01CF012C01DF0E8
:100536009DEF02F012003EC0D9FF3FC0DAFFDECFCA
:10054600F6FFDDCFF7FF0800F550250AD8A4AEEF79
:1005560002F0B0EF02F051EF03F03EC0D9FF3FC00A
:10056600DAFFDE2A000EDD22000E0001636F000EA8
:10057600626F62C066F063C067F0646965693EC019
:10058600D9FF3FC0DAFFDECFF6FFDDCFF7FF080069
:10059600F550750AD8A4D2EF02F0D4EF02F017EFA7
:1005A60003F03EC0D9FF3FC0DAFFDE2A000EDD228F
:1005B60040C0D9FF41C0DAFFDFCF42F0020EDE268F
:1005C600DFCF43F0000EDD2242C0D9FF43C0DAFF81
:1005D600DECF44F0DDCF45F044C046F045C047F0DD
:1005E600486A496A4A6A4B6A4C6A4D6A3CC01CF0C2
:1005F6003DC01DF046C01EF047C01FF048C020F0A9
:1006060049C021F04AC022F04BC023F04CC024F070
:100616004DC025F08BEC01F01CC03CF01DC03DF038
:1006260070EF03F070EF03F03EC0D9FF3FC0DAFF72
:10063600DECFF6FFDDCFF7FF0800F550250AD8A478
:1006460027EF03F029EF03F042EF03F03EC0D9FF96
:100656003FC0DAFFDE2A000EDD22000E026E250EF6
:10066600016E3CC003F03DC004F0DAEC04F0000E6D
:100676003D6E010E3C6E70EF03F070EF03F03EC06E
:10068600D9FF3FC0DAFFDE2A000EDD22000E3D6EE6
:10069600000E3C6E70EF03F070EF03F03EC0D9FF22
:1006A6003FC0DAFFDECFF6FFDDCFF7FF0800F550DB
:1006B600016E026A3CC003F03DC004F0DAEC04F0BF
:1006C6003EC0D9FF3FC0DAFFDE2A000EDD22000E53
:1006D6003D6E010E3C6E70EF03F0120020EE11F03D
:1006E600070EDE6AE806FDE209500A100B100C1030
:1006F6000D100E100F101010D8B484EF03F086EF13
:1007060003F0E2EF03F0010E196E96EF03F0D890B6
:1007160009360A360B360C360D360E360F361036BF
:10072600192A96EF03F010AE9BEF03F09DEF03F04E
:100736008AEF03F0A1EF03F0A1EF03F0D890113692
:10074600123613361436153616361736183609503D
:10075600015C0A5002580B5003580C5004580D50B7
:1007660005580E5006580F50075810500858D8A074
:10077600BFEF03F0C1EF03F0D4EF03F00950015EC1
:100786000A50025A0B50035A0C50045A0D50055A7F
:100796000E50065A0F50075A1050085A1180D4EFBF
:1007A60003F0D89010320F320E320D320C320B326B
:1007B6000A320932192EA1EF03F0E2EF03F011C05D
:1007C60001F012C002F013C003F014C004F015C00B
:1007D60005F016C006F017C007F018C008F01200A2
:1007E600000E896E000E8B6E000E8C6E000E926EE1
:1007F600000E946E000E956E270E056EF50EE82E11
:10080600FED7052EFCD700F0030E0BEC06F00D0EFE
:10081600056EFC0EE82EFED7052EFCD7030E0BEC5C
:1008260006F0850EE82EFED700F0030E0BEC06F060
:10083600210EE82EFED700F0020E0BEC06F0210E7C
:10084600E82EFED700F0000E036E280E9EEC07F091
:10085600060E056E300EE82EFED7052EFCD700D00C
:10086600000E036E080E9EEC07F0060E056E300EA7
:10087600E82EFED7052EFCD700D0000E036E010E23
:100886009EEC07F0060E056E300EE82EFED7052EFE
:10089600FCD700D0000E036E060E9EEC07F0060E87
:1008A600056E300EE82EFED7052EFCD700D0000EC2
:1008B600036E0C0E9EEC07F0060E056E300EE82E4B
:1008C600FED7052EFCD700D0120009500A100B10D7
:1008D6000C100D100E100F101010D8B475EF04F098
:1008E60077EF04F0C9EF04F0010E116E87EF04F004
:1008F600D89009360A360B360C360D360E360F36BC
:100906001036112A87EF04F010AE8CEF04F08EEF4C
:1009160004F07BEF04F092EF04F092EF04F009503C
:10092600015C0A5002580B5003580C5004580D50E5
:1009360005580E5006580F50075810500858D8A0A2
:10094600A7EF04F0A9EF04F0BBEF04F00950015E35
:100956000A50025A0B50035A0C50045A0D50055AAD
:100966000E50065A0F50075A1050085ABBEF04F0A3
:10097600D89010320F320E320D320C320B320A3250
:100986000932112E92EF04F0C9EF04F001C001F014
:1009960002C002F003C003F004C004F005C005F075
:1009A60006C006F007C007F008C008F012000350A2
:1009B6000410D8B4E1EF04F0E3EF04F0EEEF04F036
:1009C60003500410D8A4EAEF04F0ECEF04F0F3EFC0
:1009D60004F0EEEF04F00150E7EC07F048EF05F005
:1009E60020EE04F00350D9260450DA22DE50DE1041
:1009F600D8B400EF05F002EF05F01FEF05F020EE8A
:100A060004F00350D9260450DA2210EE02F0035007
:100A1600E1260450E222DE50E65CE650800A096ECA
:100A2600DE50800A0958D8B01BEF05F01DEF05F01F
:100A360048EF05F01FEF05F020EE02F00350D9262F
:100A46000450DA22DECF05F0DDCF06F003C0D9FF71
:100A560004C0DAFFDECF07F0DDCF08F0055007242B
:100A6600D96E06500820DA6E01C0DFFF20EE02F0D4
:100A76000350D9260450DA22DE2A000EDD2248EF82
:100A860005F048EF05F048EF05F01200000166A1F9
:100A96004FEF05F051EF05F05DEF05F013C00AF0DA
:100AA60014C00BF011C00CF012C00DF056EC07F09C
:100AB6005DEF05F016BE62EF05F064EF05F06AEF34
:100AC60005F015C01AF016C01BF06EEF05F0000E0B
:100AD6001B6E000E1A6E000E196E000E186E82EF57
:100AE60005F0000E026E200E016E11C003F012C05A
:100AF60004F0DAEC04F0184A192A82EF05F01A50CD
:100B0600185C1950800A176E1B50800A1758D8A017
:100B16008FEF05F091EF05F074EF05F0000166B177
:100B260097EF05F099EF05F0A5EF05F013C00AF071
:100B360014C00BF011C00CF012C00DF056EC07F00B
:100B4600A5EF05F013C001F014C002F0DFEC06F0CB
:100B56001A500124116E1B500220126EB3EF05F0DD
:100B66001200B4EC07F0010E2FEC07F0920E566E51
:100B7600000E576E0B0E586E030E596E5CC0D9FFF1
:100B86005DC0DAFFDECF5AF0DDCF5BF0B0EC06F0E9
:100B9600920E056E000E066E7CEC07F0020E2FEC30
:100BA60007F0920E566E000E576E010E586E030E2B
:100BB600596E20EE02F05C50D9265D50DA22DECF67
:100BC6005AF0DDCF5BF0B0EC06F0920E056E000E2B
:100BD600066E7CEC07F0820E5E6EDE0EE82EFED709
:100BE6005E2EFCD7820E5E6EDE0EE82EFED75E2EE1
:100BF600FCD7820E5E6EDE0EE82EFED75E2EFCD78A
:100C0600820E5E6EDE0EE82EFED75E2EFCD712003A
:100C1600026E02C001F0010E011601468250011853
:100C2600FD0B0118826E02C001F0D8900132010E50
:100C360001160146014682500118FB0B0118826E0F
:100C460002C001F0D8900132D8900132010E01168F
:100C560083500118FE0B0118836E02C001F0D89074
:100C66000132D8900132D8900132010E01160146A8
:100C760083500118FD0B0118836EDCEC07F0030EA0
:100C8600E82EFED700F01200000EB86E000EB96E08
:100C9600720ED36E4FEF06F0D3A454EF06F056EF64
:100CA60006F04FEF06F058EF06F0F3EC03F0CFEC4A
:100CB60007F05EEF06F0A40E016E000E026E08EC61
:100CC60007F0A40E5C6E000E5D6EB4EC05F0060E29
:100CD6000001A36F130EA26FAD0EE82EFED7A22F52
:100CE600FCD7A32FFAD700D05EEF06F05EEF06F032
:100CF60000EF00F050C054F051C055F0000E000156
:100D0600616F000E606F9DEF06F04EC03CF04FC065
:100D16003DF0540E3E6E000E3F6E52C040F053C082
:100D260041F09EEC02F03C50000160273D506123EB
:100D36009DEF06F054C0F6FF55C0F7FF0800F550CA
:100D46000009D8A4A9EF06F0ABEF06F088EF06F08D
:100D560060C04EF061C04FF012005A0E00018A6F5B
:100D6600000E8B6F56C08CF057C08DF0000E8F6F43
:100D7600000E8E6F000E916F000E906F8C0E4E6EF1
:100D8600000E4F6E58C050F059C051F08A0E526E88
:100D9600000E536E7DEC06F04EC088F04FC089F011
:100DA60000018E515624D96E8F515720DA6E000EEF
:100DB600DF6EDEEF06F0120001C005F002C006F09D
:100DC600E9EF06F0014A022AE9EF06F001C0D9FF71
:100DD60002C0DAFFDF50D8A4F3EF06F0F5EF06F015
:100DE600E5EF06F0F7EF06F005C003F006C004F0E5
:100DF600031E041E034A042A01500324016E0250F6
:100E06000420026E07EF07F01200665067CF03F06A
:100E1600046A03C004F0036A0312000E041201C040
:100E2600D9FF02C0DAFF03C0DEFF04C0DDFF685051
:100E360069CF03F0046A03C004F0036A0312000ECC
:100E4600041220EE02F00150D9260250DA2203C025
:100E5600DEFF04C0DDFF1200056E0504D8A436EFE0
:100E660007F038EF07F03FEF07F0000E036E800E35
:100E76009EEC07F051EF07F0020E0518D8A446EFD6
:100E860007F048EF07F051EF07F0000E036EC00EB3
:100E96009EEC07F051EF07F051EF07F0210EE82E18
:100EA600FED700F01200000E106E000E0F6E69EFF6
:100EB60007F00EC001F0026A0CC003F00DC004F08A
:100EC600DAEC04F00F4A102A69EF07F00F500A24F3
:100ED600D96E10500B20DA6EDF500E6E0E50D8A46D
:100EE60077EF07F079EF07F05CEF07F07BEF07F09D
:100EF60012008FEF07F0010E036E05C0D9FF06C082
:100F0600DAFFDF509EEC07F0054A062A210EE82E8E
:100F1600FED700F08FEF07F005C0D9FF06C0DAFF55
:100F2600DF50D8A499EF07F09BEF07F07EEF07F0AC
:100F36009DEF07F01200046E03B002D0809C01D032
:100F4600808C04380F0B0BEC06F0060EE82EFED74D
:100F560000D004500BEC06F0210EE82EFED700F070
:100F66001200000E036E010E9EEC07F0060E056ED3
:100F7600300EE82EFED7052EFCD700D0120000EE6C
:100F860060F0280EEE6AE806FDE1000EF86E030E2C
:100F9600F76E000147EF06F0000E896E0C0E926E9A
:100FA600460E636E460E626E090EB76E180E606EC2
:100FB60012008280030EE82EFED700F08290030E08
:0A0FC600E82EFED700F01200120022
:020000040020DA
:08000000FFFFFFFFFFFFFFFF00
:020000040030CA
:0E000000FFC80F3F3C1D81FF0FC00FE00F40F7
:00000001FF
