:020000040000FA
:0400000085EF07F091
:100300000052696768743A202575004C6566743A36
:0503100020257500002E
:10031600000165BF91EF01F093EF01F096EF01F058
:100326005E9296EF01F065BFA3EF01F0655106E11D
:100336006405D8B0A1EF01F0A3EF01F0A9EF01F039
:10034600000E2F6E010E2E6EADEF01F064C02EF082
:1003560065C02FF062C030F063C031F01EC032F0CD
:100366001FC033F020C034F021C035F022C036F073
:1003760023C037F024C038F025C039F0000E3B6E9C
:100386001F0E3A6E660E3A24D96E000E3B20DA6EC8
:10039600000EDF6E47EF02F03A06D8A03B06660E67
:1003A6003A24D96E000E3B20DA6E32C001F033C01B
:1003B60002F034C003F035C004F036C005F037C093
:1003C60006F038C007F039C008F00A0E096E000EB4
:1003D6000A6E000E0B6E000E0C6E000E0D6E000EF9
:1003E6000E6E000E0F6E000E106E67EC04F001C06C
:1003F60026F002C027F003C028F004C029F005C08B
:100406002AF006C02BF007C02CF008C02DF02650AD
:10041600300FDF6E2E06D8A02F063006D8A0310684
:1004260032C001F033C002F034C003F035C004F02E
:1004360036C005F037C006F038C007F039C008F0FE
:100446000A0E096E000E0A6E000E0B6E000E0C6E82
:10045600000E0D6E000E0E6E000E0F6E000E106E6C
:1004660070EC03F001C032F002C033F003C034F088
:1004760004C035F005C036F006C037F007C038F0C6
:1004860008C039F047EF02F03A503B10D8B44EEFAF
:1004960002F050EF02F086EF02F0325033103410C3
:1004A60035103610371038103910D8A45DEF02F029
:1004B6005FEF02F0CFEF01F02FBE6CEF02F02F508E
:1004C60006E12E04D8B06AEF02F06CEF02F0CFEF2F
:1004D60001F031BE77EF02F0315008E13004D8A0C8
:1004E60077EF02F079EF02F086EF02F05EB27EEF70
:1004F60002F080EF02F0CFEF01F086EF02F086EF18
:1005060002F086EF02F01CC011F01DC012F0660E5C
:100516003A24136E000E3B20146E30C015F031C025
:1005260016F048EC05F011C01CF012C01DF09CEF4F
:1005360002F012003EC0D9FF3FC0DAFFDECFF6FF61
:10054600DDCFF7FF0800F550250AD8A4ADEF02F07D
:10055600AFEF02F050EF03F03EC0D9FF3FC0DAFF25
:10056600DE2A000EDD22000E0001636F000E626FB0
:1005760062C05EF063C05FF0646965693EC0D9FF22
:100586003FC0DAFFDECFF6FFDDCFF7FF0800F550FC
:10059600750AD8A4D1EF02F0D3EF02F016EF03F0FC
:1005A6003EC0D9FF3FC0DAFFDE2A000EDD2240C082
:1005B600D9FF41C0DAFFDFCF42F0020EDE26DFCFE1
:1005C60043F0000EDD2242C0D9FF43C0DAFFDECF82
:1005D60044F0DDCF45F044C046F045C047F0486AD8
:1005E600496A4A6A4B6A4C6A4D6A3CC01CF03DC077
:1005F6001DF046C01EF047C01FF048C020F049C09D
:1006060021F04AC022F04BC023F04CC024F04DC06C
:1006160025F08BEC01F01CC03CF01DC03DF06FEFE7
:1006260003F06FEF03F03EC0D9FF3FC0DAFFDECF25
:10063600F6FFDDCFF7FF0800F550250AD8A426EF10
:1006460003F028EF03F041EF03F03EC0D9FF3FC0AF
:10065600DAFFDE2A000EDD22000E026E250E016E86
:100666003CC003F03DC004F0D9EC04F0000E3D6E32
:10067600010E3C6E6FEF03F06FEF03F03EC0D9FF43
:100686003FC0DAFFDE2A000EDD22000E3D6E000EB0
:100696003C6E6FEF03F06FEF03F03EC0D9FF3FC033
:1006A600DAFFDECFF6FFDDCFF7FF0800F550016E6B
:1006B600026A3CC003F03DC004F0D9EC04F03EC031
:1006C600D9FF3FC0DAFFDE2A000EDD22000E3D6EA6
:1006D600010E3C6E6FEF03F0120020EE11F0070ED4
:1006E600DE6AE806FDE209500A100B100C100D1028
:1006F6000E100F101010D8B483EF03F085EF03F03F
:10070600E1EF03F0010E196E95EF03F0D89009366C
:100716000A360B360C360D360E360F361036192ABB
:1007260095EF03F010AE9AEF03F09CEF03F089EF1C
:1007360003F0A0EF03F0A0EF03F0D89011361236C5
:100746001336143615361636173618360950015C28
:100756000A5002580B5003580C5004580D500558B7
:100766000E5006580F50075810500858D8A0BEEF24
:1007760003F0C0EF03F0D3EF03F00950015E0A5017
:10078600025A0B50035A0C50045A0D50055A0E507B
:10079600065A0F50075A1050085A1180D3EF03F02B
:1007A600D89010320F320E320D320C320B320A3222
:1007B6000932192EA0EF03F0E1EF03F011C001F0AA
:1007C60012C002F013C003F014C004F015C005F007
:1007D60016C006F017C007F018C008F01200000E89
:1007E600896E000E8B6E000E8C6E000E926E000EE1
:1007F600946E000E956E270E056EF50EE82EFED74A
:10080600052EFCD700F0030E12EC06F00D0E056E59
:10081600FC0EE82EFED7052EFCD7030E12EC06F0D2
:10082600850EE82EFED700F0030E12EC06F0210E20
:10083600E82EFED700F0020E12EC06F0210EE82E8E
:10084600FED700F0000E036E280E6FEC07F0060EC2
:10085600056E300EE82EFED7052EFCD700D0000E12
:10086600036E080E6FEC07F0060E056E300EE82ECE
:10087600FED7052EFCD700D0000E036E010E6FECDE
:1008860007F0060E056E300EE82EFED7052EFCD7B5
:1008960000D0000E036E060E6FEC07F0060E056E16
:1008A600300EE82EFED7052EFCD700D0000E036EC4
:1008B6000C0E6FEC07F0060E056E300EE82EFED716
:1008C600052EFCD700D0120009500A100B100C1090
:1008D6000D100E100F101010D8B474EF04F076EF50
:1008E60004F0C8EF04F0010E116E86EF04F0D89004
:1008F60009360A360B360C360D360E360F361036DE
:10090600112A86EF04F010AE8BEF04F08DEF04F0A1
:100916007AEF04F091EF04F091EF04F00950015CD6
:100926000A5002580B5003580C5004580D500558E5
:100936000E5006580F50075810500858D8A0A6EF6A
:1009460004F0A8EF04F0BAEF04F00950015E0A5073
:10095600025A0B50035A0C50045A0D50055A0E50A9
:10096600065A0F50075A1050085ABAEF04F0D8909A
:1009760010320F320E320D320C320B320A3209327D
:10098600112E91EF04F0C8EF04F001C001F002C08F
:1009960002F003C003F004C004F005C005F006C071
:1009A60006F007C007F008C008F012000350041054
:1009B600D8B4E0EF04F0E2EF04F0EDEF04F00350FA
:1009C6000410D8A4E9EF04F0EBEF04F0F2EF04F022
:1009D600EDEF04F00150ACEC07F047EF05F020EE28
:1009E60004F00350D9260450DA22DE50DE10D8B4C3
:1009F600FFEF04F001EF05F01EEF05F020EE04F026
:100A06000350D9260450DA2210EE02F00350E126F4
:100A16000450E222DE50E65CE650800A096EDE50A3
:100A2600800A0958D8B01AEF05F01CEF05F047EF19
:100A360005F01EEF05F020EE02F00350D926045013
:100A4600DA22DECF05F0DDCF06F003C0D9FF04C001
:100A5600DAFFDECF07F0DDCF08F005500724D96EA8
:100A660006500820DA6E01C0DFFF20EE02F00350C8
:100A7600D9260450DA22DE2A000EDD2247EF05F0E1
:100A860047EF05F047EF05F012005EA04DEF05F0C9
:100A96004FEF05F05BEF05F013C00AF014C00BF042
:100AA60011C00CF012C00DF027EC07F05BEF05F05B
:100AB60016BE60EF05F062EF05F068EF05F015C0B1
:100AC6001AF016C01BF06CEF05F0000E1B6E000E40
:100AD6001A6E000E196E000E186E80EF05F0000EED
:100AE600026E200E016E11C003F012C004F0D9ECA4
:100AF60004F0184A192A80EF05F01A50185C1950AC
:100B0600800A176E1B50800A1758D8A08DEF05F083
:100B16008FEF05F072EF05F05EB094EF05F096EFFB
:100B260005F0A2EF05F013C00AF014C00BF011C0D7
:100B36000CF012C00DF027EC07F0A2EF05F013C081
:100B460001F014C002F0B0EC06F01A500124116E48
:100B56001B500220126EB0EF05F01200000EB86EA8
:100B6600000EB96E720ED36EB9EF05F0D3A4BEEFC8
:100B760005F0C0EF05F0B9EF05F0C2EF05F0F2ECB5
:100B860003F094EC07F0C8EF05F0A00E016E000E1E
:100B9600026ED9EC06F0000E036E010E6FEC07F044
:100BA600010E00EC07F0900E566E000E576E0B0EFF
:100BB600586E030E596EA0C05AF0A1C05BF081ECCE
:100BC60006F0900E056E000E066E4DEC07F0020E56
:100BD60000EC07F0900E566E000E576E010E586E22
:100BE600030E596EA2C05AF0A3C05BF081EC06F06A
:100BF600900E056E000E066E4DEC07F0060E5D6E4D
:100C0600130E5C6EAE0EE82EFED75C2EFCD75D2E64
:100C1600FAD7C8EF05F0C8EF05F000EF00F0026E56
:100C260002C001F0010E0116014682500118FD0BAB
:100C36000118826E02C001F0D8900132010E011631
:100C46000146014682500118FB0B0118826E02C054
:100C560001F0D8900132D8900132010E011683506E
:100C66000118FE0B0118836E02C001F0D890013204
:100C7600D8900132D8900132010E011601468350F8
:100C86000118FD0B0118836EA1EC07F0030EE82E88
:100C9600FED700F0120050C054F051C055F0000EBF
:100CA6000001616F000E606F6EEF06F04EC03CF003
:100CB6004FC03DF0540E3E6E000E3F6E52C040F0E7
:100CC60053C041F09DEC02F03C50000160273D50BE
:100CD60061236EEF06F054C0F6FF55C0F7FF08001B
:100CE600F5500009D8A47AEF06F07CEF06F059EF2C
:100CF60006F060C04EF061C04FF012005A0E0001BF
:100D0600886F000E896F56C08AF057C08BF0000EB0
:100D16008D6F000E8C6F000E8F6F000E8E6F8A0E19
:100D26004E6E000E4F6E58C050F059C051F0880EEE
:100D3600526E000E536E4EEC06F04EC086F04FC05B
:100D460087F000018C515624D96E8D515720DA6EEA
:100D5600000EDF6EAFEF06F0120001C005F002C014
:100D660006F0BAEF06F0014A022ABAEF06F001C011
:100D7600D9FF02C0DAFFDF50D8A4C4EF06F0C6EFF1
:100D860006F0B6EF06F0C8EF06F005C003F006C0A1
:100D960004F0031E041E034A042A01500324016EB4
:100DA60002500420026ED8EF06F01200665067CF9C
:100DB60003F0046A03C004F0036A0312000E04126F
:100DC60001C0D9FF02C0DAFF03C0DEFF04C0DDFFA9
:100DD600685069CF03F0046A03C004F0036A031283
:100DE600000E041220EE02F00150D9260250DA223B
:100DF60003C0DEFF04C0DDFF1200056E0504D8A4A3
:100E060007EF07F009EF07F010EF07F0000E036E8B
:100E1600800E6FEC07F022EF07F0020E0518D8A43B
:100E260017EF07F019EF07F022EF07F0000E036E39
:100E3600C00E6FEC07F022EF07F022EF07F0210E4D
:100E4600E82EFED700F01200000E106E000E0F6E98
:100E56003AEF07F00EC001F0026A0CC003F00DC0B5
:100E660004F0D9EC04F00F4A102A3AEF07F00F50BD
:100E76000A24D96E10500B20DA6EDF500E6E0E501B
:100E8600D8A448EF07F04AEF07F02DEF07F04CEF34
:100E960007F0120060EF07F0010E036E05C0D9FFE0
:100EA60006C0DAFFDF506FEC07F0054A062A210E6E
:100EB600E82EFED700F060EF07F005C0D9FF06C0A8
:100EC600DAFFDF50D8A46AEF07F06CEF07F04FEFB8
:100ED60007F06EEF07F01200046E03B002D0809C9C
:100EE60001D0808C04380F0B12EC06F0060EE82EAB
:100EF600FED700D0045012EC06F0210EE82EFED7E5
:100F060000F0120000EE60F0260EEE6AE806FDE143
:100F16005F6A5E6A000EF86E030EF76E0001B1EFAF
:100F260005F0000E896E0C0E926E460E636E460E2E
:100F3600626E090EB76E180E606E12008280030E86
:100F4600E82EFED700F08290030EE82EFED700F0C2
:040F56001200120073
:020000040020DA
:08000000FFFFFFFFFFFFFFFF00
:020000040030CA
:0E000000FFC80F3F3C1D81FF0FC00FE00F40F7
:00000001FF
