:020000040000FA
:040000003FEF00F0DE
:100008005A82D9CF01F0DACF02F0F3CF03F0F4CF60
:1000180004F09EAA1AD0AECF05F0020E0518D8A497
:1000280002D0000E596E030E0518D8A403D0010E95
:100038000001BE6F5950010DDF0EF324D96E000E7A
:10004800F420DA6E05C0DFFF592AF0A20AD082BA7E
:1000580082AA06D082BA82AA03D0000E0001BE6F1F
:10006800F09204C0F4FF03C0F3FF02C0DAFF01C03E
:0A007800D9FF5A9211008FEF0DF02E
:1003000000435320494E434F5252454354202564E5
:1003100000435320434F525245435420256400521A
:10032000696768743A202575004C6566743A202523
:0303300075000055
:10033400000EB86E000EB96E720ED36ED3A4FED743
:10034400EDEC07F0E0EC0DF0B6EC0DF0D3EC0DF0B5
:10035400EDEC0DF005EC0EF0000E0001996FC70EE8
:10036400986F000EA86F010EA96F790EAA6F0F0E79
:10037400AB6F780EAC6F0F0EAD6F000EAE6F98C002
:10038400AFF099C0B0F0000EB16F010EB26F770EEE
:10039400B36F0F0EB46F760EB56F0F0EB66F020EFD
:1003A400B76F98C0B8F099C0B9F0BFD0A00E066E70
:1003B400000E076E2AEC09F0A00E0001826F000EF9
:1003C400836FC9EC08F0000E00019D6F320E9C6F24
:1003D40020EEA2F0DECF95F0DDCF96F0951F961FAC
:1003E400954B962BA05195259A6FA15196219B6F01
:1003F400A005010EA159D8B005D0A205010EA3593C
:10040400D8A004D0000E9D6F320E03D0000E9D6F55
:10041400140E9C6F9CC095F09DC096F0951F961F7E
:10042400954B962B95519A5D9B51800A976F9651E7
:10043400800A9759D8B026D0A80E1B6E000E1C6EE9
:10044400B10E1D6E000E1E6E64EC0CF0A80E1B6E39
:10045400000E1C6EB10E1D6E000E1E6EC7EC0AF06F
:10046400020E0001966F040E956FBA0EE82EFED7A9
:10047400952FFCD7962FFAD700F0000E00019F6F3E
:10048400010E57D09A519C5D9D51800A956F9B51E6
:10049400800A9559D8B025D0A80E1B6E000E1C6E8C
:1004A400B10E1D6E000E1E6E64EC0CF0A80E1B6ED9
:1004B400000E1C6EB10E1D6E000E1E6E7CEC0AF05A
:1004C400020E0001966F040E956FBA0EE82EFED749
:1004D400952FFCD7962FFAD700F000019E699F69EB
:1004E40052D0A15104E1650EA05DD8A024D0A3513F
:1004F40004E1650EA25DD8A01ED09E519F11D8B410
:1005040014D0A80E1B6E000E1C6EB10E1D6E000ED4
:100514001E6E64EC0CF0A80E1B6E000E1C6EB10E69
:100524001D6E000E1E6E5DEC0BF0000E00019F6F41
:10053400000E9E6F28D09E059F11D8B424D0A80E1B
:100544001B6E000E1C6EB10E1D6E000E1E6E31EC85
:100554000AF0A80E1B6E000E1C6EB10E1D6E000E6E
:100564001E6E64EC0CF000019E699F69020E00018E
:10057400966F040E956FBA0EE82EFED7952FFCD712
:10058400962FFAD700F00001BE51D8B40FD7BE059C
:10059400D8A4CBD7DF0E0B6E000E0C6EDF0E0D6EE3
:1005A400000E0E6EEAEC0BF01A0E0001956FF80EB9
:1005B400E82EFED7952FFCD700F03FEF00F023C0C4
:1005C4003BF024C03CF025C03DF026C03EF027C0DF
:1005D4003FF028C040F029C041F02AC042F042AEAA
:1005E40002D0010E01D0000E396E3A6A39503A1029
:1005F400D8B410D0421E411E401E3F1E3E1E3D1E5A
:100604003C1E3B6C000E3C223D223E223F224022F7
:100614004122422256AE579256BE05D0565008E1AA
:100624005504D8B005D0000E366E010E356E04D0D8
:1006340055C035F056C036F0BCC037F0BDC038F0F8
:1006440039503A10D8A402D057A403D03706D8A002
:100654003806000E446E1F0E436EBF0E4324D96E3F
:10066400000E4420DA6E000EDF6E7CD04306D8A064
:100674004406BF0E4324D96E000E4420DA6E3BC0FC
:1006840006F03CC007F03DC008F03EC009F03FC092
:100694000AF040C00BF041C00CF042C00DF00A0E4D
:1006A4000E6E000E0F6E000E106E000E116E000E18
:1006B400126E000E136E000E146E000E156E5BECBF
:1006C40007F006C02BF007C02CF008C02DF009C0BD
:1006D4002EF00AC02FF00BC030F00CC031F00DC06A
:1006E40032F02BC018F02DC019F030EC0DF018507A
:1006F400300FDF6E3506D8A036063706D8A0380688
:100704003BC006F03CC007F03DC008F03EC009F015
:100714003FC00AF040C00BF041C00CF042C00DF0E5
:100724000A0E0E6E000E0F6E000E106E000E116E8D
:10073400000E126E000E136E000E146E000E156E77
:10074400B7EC06F006C03BF007C03CF008C03DF033
:1007540009C03EF00AC03FF00BC040F00CC041F0AD
:100764000DC042F044BE1FD0445003E14304D8A05E
:100774001AD03B503C103D103E103F104010411029
:100784004210D8A473D736BE05D0365002E13504E2
:10079400D8B06CD738BE07D0385003E13704D8A09E
:1007A40002D057B263D739503A10D8A402D057A414
:1007B40017D04306D8A0440639503A10D8A404D020
:1007C400000E346E2B0E03D0000E346E2D0E336EDD
:1007D400BF0E4324D96E000E4420DA6E33C0DFFF0F
:1007E40021C016F022C017F0BF0E4324186E000E6D
:1007F4004420196E37C01AF038C01BF012EC0BF00D
:1008040016C021F017C022F0120047C0D9FF48C01B
:10081400DAFFDECFF6FFDDCFF7FF0800F550250A3B
:10082400D8A4E8D047C0D9FF48C0DAFFDE2A000EBA
:10083400DD22000E0001BD6F000EBC6FBCC057F07E
:10084400BDC058F05568566847C0D9FF48C0DAFFA4
:10085400DECFF6FFDDCFF7FF0800F550640AD8B409
:100864000DD047C0D9FF48C0DAFFDECFF6FFDDCF99
:10087400F7FF0800F550690AD8A43FD047C0D9FF54
:1008840048C0DAFFDE2A000EDD2249C0D9FF4AC083
:10089400DAFFDFCF4BF0020EDE26DFCF4CF0000E86
:1008A400DD224BC0D9FF4CC0DAFFDECF60F0DDCFD4
:1008B40061F0000E61BFFF0E626F636F646F656F5E
:1008C400666F676F45C021F046C022F060C023F018
:1008D40061C024F062C025F063C026F064C027F034
:1008E40065C028F066C029F067C02AF0E1EC02F088
:1008F40021C045F022C046F0120047C0D9FF48C0CD
:10090400DAFFDECFF6FFDDCFF7FF0800F550750AFA
:10091400D8A441D047C0D9FF48C0DAFFDE2A000E70
:10092400DD2249C0D9FF4AC0DAFFDFCF4BF0020E07
:10093400DE26DFCF4CF0000EDD224BC0D9FF4CC0C9
:10094400DAFFDECF4DF0DDCF4EF04DC068F04EC083
:1009540069F000016A6B6B6B6C6B6D6B6E6B6F6B2C
:1009640045C021F046C022F068C023F069C024F0DD
:100974006AC025F06BC026F06CC027F06DC028F06B
:100984006EC029F06FC02AF01AEC05F021C045F0C2
:1009940022C046F0120047C0D9FF48C0DAFFDECFBC
:1009A400F6FFDDCFF7FF0800F550250AD8A416D0CE
:1009B40047C0D9FF48C0DAFFDE2A000EDD22000E50
:1009C400076E250E066E45C008F046C009F0E1EC3E
:1009D40009F0000E466E010E456E120047C0D9FFA5
:1009E40048C0DAFFDE2A000EDD22000E466E000E3D
:1009F400456E120047C0D9FF48C0DAFFDECFF6FFCC
:100A0400DDCFF7FF0800F550066E076A45C008F011
:100A140046C009F0E1EC09F047C0D9FF48C0DAFF4D
:100A2400DE2A000EDD22000E466E010E456E120017
:100A340056AE579256BE05D0565008E15504D8B06C
:100A440005D0000E346E010E336E04D055C033F061
:100A540056C034F0BCC035F0BDC036F023C037F00A
:100A640024C038F025C039F026C03AF027C03BF046
:100A740028C03CF029C03DF02AC03EF0000E406E74
:100A84001F0E3F6EBF0E3F24D96E000E4020DA6E5B
:100A9400000EDF6E76D03F06D8A04006BF0E3F247E
:100AA400D96E000E4020DA6E37C006F038C007F069
:100AB40039C008F03AC009F03BC00AF03CC00BF062
:100AC4003DC00CF03EC00DF00A0E0E6E000E0F6E0F
:100AD400000E106E000E116E000E126E000E136EDC
:100AE400000E146E000E156E8AEC09F006C02BF091
:100AF40007C02CF008C02DF009C02EF00AC02FF05A
:100B04000BC030F00CC031F00DC032F02B50300F60
:100B1400DF6E3306D8A034063506D8A0360637C0B3
:100B240006F038C007F039C008F03AC009F03BC0FD
:100B34000AF03CC00BF03DC00CF03EC00DF00A0EB4
:100B44000E6E000E0F6E000E106E000E116E000E73
:100B5400126E000E136E000E146E000E156E62EC13
:100B640008F006C037F007C038F008C039F009C0F3
:100B74003AF00AC03BF00BC03CF00CC03DF00DC095
:100B84003EF03F504010D8B41AD0375038103910C6
:100B94003A103B103C103D103E10D8A47CD734BE14
:100BA40005D0345002E13304D8B075D736BE07D02F
:100BB400365003E13504D8A002D057B26CD721C017
:100BC40016F022C017F0BF0E3F24186E000E40200E
:100BD400196E35C01AF036C01BF012EC0BF016C0BB
:100BE40021F017C022F0120020EE01F01450D92693
:100BF4001550DA22DF50D8B434D020EE07F0145068
:100C0400D9261550DA22DECF16F0DDCF17F014C046
:100C1400D9FF15C0DAFFDF50186E1850066E076A48
:100C240020EE07F01450D9261550DA22DECF08F052
:100C3400DDCF09F0A3EC0DF006C00CF007C00DF0F9
:100C4400000E0F6E640E0E6EA8EC0BF00C1E0D1E43
:100C54000C4A0D2A16500C24196E17500D201A6ECA
:100C640023D014C0D9FF15C0DAFFDF50166E16501A
:100C7400066E076A20EE07F01450D9261550DA22C2
:100C8400DECF08F0DDCF09F0A3EC0DF006C00CF0C8
:100C940007C00DF0000E0F6E640E0E6EA8EC0BF084
:100CA4000CC019F00DC01AF019C016F01AC017F0D4
:100CB400D89016361736D8901636173616C019F04F
:100CC40017C01AF020EE02F01450D9261550DA227B
:100CD400DECF16F0DDCF17F016C0D9FF17C0DAFF4C
:100CE40019C0DFFF20EE04F01450D9261550DA2283
:100CF400DECF16F0DDCF17F016C0D9FF17C0DAFF2C
:100D04001A503F0BDF6E20EE01F01450D926155017
:100D1400DA22DF50D8B414D020EE06F01450D926CD
:100D24001550DA22DF50166E010E176E162A02D005
:100D3400D8901736162EFCD717508A108A6E1200D8
:100D440020EE06F01450D9261550DA22DF50166E24
:100D5400010E176E162A02D0D8901736162EFCD71D
:100D64001750FF0A8A148A6E1200000E176E15AE11
:100D740012D0151E141E131E121E111E101E0F1E3D
:100D84000E6C000E0F2210221122122213221422A2
:100D94001522010E176E0DAE12D00D1E0C1E0B1E69
:100DA4000A1E091E081E071E066C000E07220822D2
:100DB40009220A220B220C220D22010E171A20EE00
:100DC40018F0070EDE6AE806FDE20E500F10101050
:100DD40011101210131014101510D8B446D0010EAF
:100DE400166E0AD0D8900E360F36103611361236DB
:100DF400133614361536162A15AEF4D7D89018368D
:100E040019361A361B361C361D361E361F360E5042
:100E1400065C0F50075810500858115009581250CA
:100E24000A5813500B5814500C5815500D58D8A08C
:100E340011D00E50065E0F50075A1050085A115028
:100E4400095A12500A5A13500B5A14500C5A15507E
:100E54000D5A1880D89015321432133212321132CE
:100E640010320F320E32162EC9D71750D8B410D004
:100E74001F1E1E1E1D1E1C1E1B1E1A1E191E186C54
:100E8400000E19221A221B221C221D221E221F229E
:100E940018C006F019C007F01AC008F01BC009F00A
:100EA4001CC00AF01DC00BF01EC00CF01FC00DF0DA
:100EB4001200000E176E0DAE12D00D1E0C1E0B1E6E
:100EC4000A1E091E081E071E066C000E07220822B1
:100ED40009220A220B220C220D22010E176E15AED6
:100EE40010D0151E141E131E121E111E101E0F1ECE
:100EF4000E6C000E0F221022112212221322142231
:100F040015220E500F10101011101210131014107F
:100F14001510D8B43CD0010E166E0AD0D8900E36F7
:100F24000F36103611361236133614361536162A85
:100F340015AEF4D70E50065C0F50075810500858E1
:100F44001150095812500A5813500B5814500C5889
:100F540015500D58D8A010D00E50065E0F50075AE9
:100F64001050085A1150095A12500A5A13500B5A69
:100F740014500C5A15500D5AD8901532143213329D
:100F84001232113210320F320E32162ED3D71750BE
:100F9400D8B410D00D1E0C1E0B1E0A1E091E081EEE
:100FA400071E066C000E0722082209220A220B22C1
:100FB4000C220D2206C006F007C007F008C008F096
:100FC40009C009F00AC00AF00BC00BF00CC00CF009
:100FD4000DC00DF01200000E896E000E8B6E000E17
:100FE4008C6E000E926E000E946E000E956E270E9F
:100FF4000A6EF50EE82EFED70A2EFCD700F0030E7B
:1010040028EC0CF00D0E0A6EFC0EE82EFED70A2E0C
:10101400FCD7030E28EC0CF0850EE82EFED700F06A
:10102400030E28EC0CF0210EE82EFED700F0020E81
:1010340028EC0CF0210EE82EFED700F0000E086E0E
:10104400280E79EC0DF0060E0A6E300EE82EFED74F
:101054000A2EFCD700D0000E086E080E79EC0DF0B5
:10106400060E0A6E300EE82EFED70A2EFCD700D0EC
:10107400000E086E010E79EC0DF0060E0A6E300EAD
:10108400E82EFED70A2EFCD700D0000E086E060EFE
:1010940079EC0DF0060E0A6E300EE82EFED70A2EFD
:1010A400FCD700D0000E086E0C0E79EC0DF0060E85
:1010B4000A6E300EE82EFED70A2EFCD700D012009E
:1010C40020EE16F0070EDE6AE806FDE20E500F1061
:1010D400101011101210131014101510D8B446D09B
:1010E400010E1E6E0AD0D8900E360F361036113609
:1010F40012361336143615361E2A15AEF4D7D89088
:1011040016361736183619361A361B361C361D365F
:101114000E50065C0F5007581050085811500958CB
:1011240012500A5813500B5814500C5815500D589F
:10113400D8A011D00E50065E0F50075A1050085A0E
:101144001150095A12500A5A13500B5A14500C5A7F
:1011540015500D5A1680D8901532143213321232AB
:10116400113210320F320E321E2EC9D716C006F0BD
:1011740017C007F018C008F019C009F01AC00AF027
:101184001BC00BF01CC00CF01DC00DF01200C5EC10
:101194000DF0010E61EC0DF0850E0001726F000E72
:1011A400736F290E746F030E756F82C0D9FF83C0ED
:1011B400DAFFDECF76F0DDCF77F09FEC0CF0850E12
:1011C4000A6E000E0B6E49EC0DF0020E61EC0DF090
:1011D400850E0001726F000E736F1F0E746F030E85
:1011E400756F20EE02F08251D9268351DA22DECFC8
:1011F40076F0DDCF77F09FEC0CF0850E0A6E000ED2
:101204000B6E49EC0DF0820E0001846FDD0EE82EAA
:10121400FED7842FFCD700D0820E0001846FDD0E30
:10122400E82EFED7842FFCD700D0820E0001846FF5
:10123400DD0EE82EFED7842FFCD700D0820E0001ED
:10124400846FDD0EE82EFED7842FFCD700D0120069
:10125400665067CF08F0096A08C009F0086A0812E6
:10126400000E091206C0D9FF07C0DAFF08C0DEFF6E
:1012740009C0DDFF685069CF08F0096A08C009F0A9
:10128400086A0812000E091220EE02F00650D92650
:101294000750DA2208C0DEFF09C0DDFF06C0D9FF0F
:1012A40007C0DAFFDECF08F0DDCF09F0060E0A6EC4
:1012B400D890093208320A2EFBD706C0D9FF07C0DE
:1012C400DAFF08C0DEFF09C0DDFF20EE02F00650A1
:1012D400D9260750DA22DECF08F0DDCF09F0060E5A
:1012E4000A6ED890093208320A2EFBD720EE02F09B
:1012F4000650D9260750DA2208C0DEFF09C0DDFFF8
:10130400820E086EDE0EE82EFED7082EFCD71200E1
:101314000E500F101010111012101310141015107D
:10132400D8B43CD0010E166E0AD0D8900E360F36C3
:10133400103611361236133614361536162A15AEF3
:10134400F4D70E50065C0F5007581050085811502F
:10135400095812500A5813500B5814500C58155071
:101364000D58D8A010D00E50065E0F50075A1050DA
:10137400085A1150095A12500A5A13500B5A145051
:101384000C5A15500D5AD8901532143213321232A9
:10139400113210320F320E32162ED3D706C006F099
:1013A40007C007F008C008F009C009F00AC00AF035
:1013B4000BC00BF00CC00CF00DC00DF01200085067
:1013C4000910D8B404D008500910D8A404D0065089
:1013D4000DEC0EF0120020EE04F00850D92609504E
:1013E400DA22DE50DE10D8B416D020EE04F0085015
:1013F400D9260950DA2210EE02F00850E1260950ED
:10140400E222DE50E65CE650800A0E6EDE50800A70
:101414000E58D8B0120020EE02F00850D926095018
:10142400DA22DECF0AF0DDCF0BF008C0D9FF09C005
:10143400DAFFDECF0CF0DDCF0DF00A500C24D96EAC
:101444000B500D20DA6E06C0DFFF20EE02F00850CC
:10145400D9260950DA22DE2A000EDD22120020EEFF
:1014640001F01B50D9261C50DA22010EDF6E20EE4B
:1014740001F01D50D9261E50DA22000EDF6E2BD04B
:101484001BC0D9FF1CC0DAFF320EDF6005D01BC0C1
:10149400D9FF1CC0DAFFDF2A1DC0D9FF1EC0DAFF46
:1014A400320EDF6005D01DC0D9FF1EC0DAFFDF2A6F
:1014B4001BC014F01CC015F0F6EC05F01DC014F0B0
:1014C4001EC015F0F6EC05F00D0E1F6EFC0EE82E96
:1014D400FED71F2EFCD71BC0D9FF1CC0DAFF310E6C
:1014E400DF64CED71DC0D9FF1EC0DAFF310EDF6422
:1014F400C7D7120020EE01F01B50D9261C50DA2267
:10150400010EDF6E20EE01F01D50D9261E50DA22A6
:10151400000EDF6E2BD01BC0D9FF1CC0DAFF320EC9
:10152400DF6005D01BC0D9FF1CC0DAFFDF2A1DC055
:10153400D9FF1EC0DAFF320EDF6005D01DC0D9FF0F
:101544001EC0DAFFDF2A1BC014F01CC015F0F6EC35
:1015540005F01DC014F01EC015F0F6EC05F00D0EDC
:101564001F6EFC0EE82EFED71F2EFCD71BC0D9FF22
:101574001CC0DAFF310EDF64CED71DC0D9FF1EC0F8
:10158400DAFF310EDF64C7D7120020EE01F01B50E2
:10159400D9261C50DA22000EDF6E20EE01F01D5019
:1015A400D9261E50DA22010EDF6E2BD01BC0D9FFC4
:1015B4001CC0DAFF320EDF6005D01BC0D9FF1CC08F
:1015C400DAFFDF2A1DC0D9FF1EC0DAFF320EDF604A
:1015D40005D01DC0D9FF1EC0DAFFDF2A1BC014F0DE
:1015E4001CC015F0F6EC05F01DC014F01EC015F07B
:1015F400F6EC05F00D0E1F6EFC0EE82EFED71F2E26
:10160400FCD71BC0D9FF1CC0DAFF310EDF64CED774
:101614001DC0D9FF1EC0DAFF310EDF64C7D7120028
:1016240057A00AD018C00FF019C010F016C011F05E
:1016340017C012F014EC0DF01BBE05D01AC01FF039
:101644001BC020F004D0000E206E000E1F6E000E92
:101654001E6E000E1D6E0CD0000E076E200E066E60
:1016640016C008F017C009F0E1EC09F01D4A1E2A63
:101674001F501D5C1E50800A1C6E2050800A1C588E
:10168400D8A0EAD757B00AD018C00FF019C010F08C
:1016940016C011F017C012F014EC0DF018C006F0CB
:1016A40019C007F0F7EC0CF01F500624166E2050FA
:1016B4000720176E120020EE01F01B50D9261C5093
:1016C400DA22000EDF6E20EE01F01D50D9261E50E6
:1016D400DA22000EDF6E2BD01BC0D9FF1CC0DAFF4C
:1016E400640EDF6005D01BC0D9FF1CC0DAFFDF2AFF
:1016F4001DC0D9FF1EC0DAFF640EDF6005D01DC017
:10170400D9FF1EC0DAFFDF2A1BC014F01CC015F07D
:10171400F6EC05F01DC014F01EC015F0F6EC05F053
:101724000D0E1F6EFC0EE82EFED71F2EFCD71BC01D
:10173400D9FF1CC0DAFF630EDF64CED71DC0D9FF0A
:101744001EC0DAFF630EDF64C7D71200000E116EED
:101754000FAE06D00E6C0F1ED8B00F2A010E116EFC
:101764000DAE06D00C6C0D1ED8B00D2A010E111A48
:10177400000E136E000E126E0E500F10D8B41CD053
:10178400010E106E04D0D8900E360F36102A0FAE0C
:10179400FAD7D890123613360E500C5C0F500D58F1
:1017A400D8A005D00E500C5E0F500D5A1280D89060
:1017B4000F320E32102EEDD71150D8B404D0126C63
:1017C400131ED8B0132A12C00CF013C00DF012006F
:1017D400C5EC0DF0010E61EC0DF002D00B4A0C2AA1
:1017E4000BC0D9FF0CC0DAFF030EDE18D8B412D038
:1017F400F5D7010E086E20EE01F00D50D9260E50DB
:10180400DA22DF5079EC0DF0210EE82EFED700F03D
:101814000D4A0E2AFE0E0F6EFF0E106E0BC011F055
:101824000CC012F00F50112610501222010E0D247C
:10183400136E000E0E20146E1150135C12501458C7
:10184400D8A0D7D7020E61EC0DF01200076E07C0C6
:1018540006F0010E0616064682500618FD0B061801
:10186400826E07C006F0D8900632010E06160646B0
:10187400064682500618FB0B0618826E07C006F057
:10188400D8900632D8900632010E061683500618F8
:10189400FE0B0618836E07C006F0D8900632D89067
:1018A4000632D8900632010E0616064683500618F4
:1018B400FD0B0618836EFAEC0DF0030EE82EFED72E
:1018C40000F012002BD01BC0D9FF1CC0DAFFDF5080
:1018D400D8B405D01BC0D9FF1CC0DAFFDF061DC079
:1018E400D9FF1EC0DAFFDF50D8B405D01DC0D9FF20
:1018F4001EC0DAFFDF061BC014F01CC015F0F6ECA6
:1019040005F01DC014F01EC015F0F6EC05F00D0E28
:101914001F6EFC0EE82EFED71F2EFCD71BC0D9FF6E
:101924001CC0DAFFDF50D8A4CED71DC0D9FF1EC01B
:10193400DAFFDF50D8B41200C6D7760E00017A6FF2
:10194400000E7B6F72C07CF073C07DF0000E7F6F61
:10195400000E7E6F000E816F000E806F7C0E4F6E46
:10196400000E506E74C051F075C052F07A0E536E72
:10197400000E546ECCEC0CF04FC078F050C079F0EF
:1019840000017E517225D96E7F517321DA6E000EEB
:10199400DF6E120051C070F052C071F0000E0001F1
:1019A400BB6F000EBA6F13D04FC045F050C046F065
:1019B400700E476E000E486E53C049F054C04AF092
:1019C40007EC04F045500001BA274650BB2370C011
:1019D400F6FF71C0F7FF0800F5500009D8A4E4D75A
:1019E400BAC04FF0BBC050F0120006C00AF007C0E6
:1019F4000BF002D0064A072A06C0D9FF07C0DAFF57
:101A0400DF50D8A4F7D70AC008F00BC009F0081EAD
:101A1400091E084A092A06500824066E07500920A0
:101A2400076E1200000E156E000E146E0BD013C05C
:101A340006F0076A11C008F012C009F0E1EC09F0E1
:101A4400144A152A14500F24D96E15501020DA6E3A
:101A5400DF50136E1350D8B41200E9D719BE05D065
:101A6400195010E11804D8B00DD018C01AF019C0DC
:101A74001BF01A1E1B1E1A4A1B2A1AC018F01BC080
:101A840019F0120018C018F019C019F012000FD084
:101A9400010E086E0AC0D9FF0BC0DAFFDF5079ECE3
:101AA4000DF00A4A0B2A210EE82EFED700F00AC0D8
:101AB400D9FF0BC0DAFFDF50D8B41200E9D70A6EA1
:101AC4000A04D8A406D0000E086E800E79EC0DF03E
:101AD40009D0020E0A18D8A405D0000E086EC00E54
:101AE40079EC0DF0210EE82EFED700F01200096EFD
:101AF40008B002D0809C01D0808C09380F0B28ECF0
:101B04000CF0060EE82EFED700D0095028EC0CF09D
:101B1400210EE82EFED700F0120000EEBAF0360EC9
:101B2400EE6AE806FDE1596A586A576A566A556AC8
:101B34005A905A92000EF86E030EF76E00019AEF57
:101B440001F006500802F3CF0AF0F4CF0BF0065070
:101B54000902F3500B2607500802F3500B260AC063
:101B640006F00BC007F01200000E936E000E7F6E9D
:101B7400800E7E6E7F0E6F6E000E6E6EC70E7B6ED5
:101B8400000E7A6E1200000E086E010E79EC0DF054
:101B9400060E0A6E300EE82EFED70A2EFCD700D0B1
:101BA4001200000E896E0C0E926E460E636E460E87
:101BB400626E090EB76E180E606E1200000EB76EDC
:101BC400B79EB79CB750E70B1009B76EB79AB79496
:101BD400B792B78012009450C009946ECC0EAF6EC9
:101BE400000EB06EAA86AC84AB88AB8EAC8A1200B1
:101BF4008280030EE82EFED700F08290030EE82EBA
:101C0400FED700F01200AE50AE50AE509D8AF28C5A
:081C1400F28EF08812001200AC
:020000040020DA
:08000000FFFFFFFFFFFFFFFF00
:020000040030CA
:0E000000FFC80F3F3C1D81FF0FC00FE00F40F7
:00000001FF
