:020000040000FA
:0400000048EF00F0D5
:100008005A82D9CF01F0DACF02F0F3CF03F0F4CF60
:1000180004F09EAA12EF00F014EF00F03EEF00F09B
:10002800AECF05F0020E0518D8A41DEF00F01FEFA3
:1000380000F023EF00F0000E596E23EF00F0030EDE
:100048000518D8A42AEF00F02CEF00F031EF00F0EB
:10005800010E00019E6F31EF00F05950010DBF0EE7
:10006800F324D96E000EF420DA6E05C0DFFF592A9A
:100078003EEF00F004C0F4FF03C0F3FF02C0DAFF54
:0C00880001C0D9FF5A921100F7EF0BF0F5
:1003000000435320494E434F5252454354202564E5
:1003100000435320434F525245435420256400521A
:10032000696768743A202575004C6566743A202523
:0303300075000055
:1003340023C03BF024C03CF025C03DF026C03EF075
:1003440027C03FF028C040F029C041F02AC042F045
:1003540042BEAFEF01F0B2EF01F0010EB3EF01F0D6
:10036400000E396E3A6A39503A10D8B4BCEF01F035
:10037400BEEF01F0D0EF01F0421E411E401E3F1EB1
:100384003E1E3D1E3C1E3B6C000E3C223D223E2286
:100394003F22402241224222D0EF01F056BED5EF47
:1003A40001F0D7EF01F0DAEF01F05792DAEF01F044
:1003B40056BEE7EF01F0565006E15504D8B0E5EF1C
:1003C40001F0E7EF01F0EDEF01F0000E366E010EE3
:1003D400356EF1EF01F055C035F056C036F09CC0D3
:1003E40037F09DC038F039503A10D8A4FCEF01F032
:1003F400FEEF01F007EF02F057A403EF02F005EF60
:1004040002F00CEF02F007EF02F03706D8A038062E
:100414000CEF02F0000E446E1F0E436E9F0E432439
:10042400D96E000E4420DA6E000EDF6E98EF02F0F3
:100434004306D8A044069F0E4324D96E000E4420E0
:10044400DA6E3BC006F03CC007F03DC008F03EC089
:1004540009F03FC00AF040C00BF041C00CF042C0AC
:100464000DF00A0E0E6E000E0F6E000E106E000ED2
:10047400116E000E126E000E136E000E146E000E3E
:10048400156E4BEC06F006C02BF007C02CF008C02C
:100494002DF009C02EF00AC02FF00BC030F00CC0B4
:1004A40031F00DC032F02BC018F02DC019F09DECC6
:1004B4000BF01850300FDF6E3506D8A0360637061D
:1004C400D8A038063BC006F03CC007F03DC008F099
:1004D4003EC009F03FC00AF040C00BF041C00CF030
:1004E40042C00DF00A0E0E6E000E0F6E000E106E5E
:1004F400000E116E000E126E000E136E000E146EBE
:10050400000E156E73EC05F006C03BF007C03CF01E
:1005140008C03DF009C03EF00AC03FF00BC040F0F7
:100524000CC041F00DC042F098EF02F044BEA3EFBE
:1005340002F0445008E14304D8A0A3EF02F0A5EF71
:1005440002F0DBEF02F03B503C103D103E103F1038
:10055400401041104210D8A4B2EF02F0B4EF02F000
:100564001AEF02F036BEC1EF02F0365006E1350450
:10057400D8B0BFEF02F0C1EF02F01AEF02F038BEBC
:10058400CCEF02F0385008E13704D8A0CCEF02F0E9
:10059400CEEF02F0DBEF02F057B2D3EF02F0D5EF6B
:1005A40002F01AEF02F0DBEF02F0DBEF02F0DBEF18
:1005B40002F039503A10D8A4E2EF02F0E4EF02F06E
:1005C400EDEF02F057A4E9EF02F0EBEF02F00FEFCA
:1005D40003F0EDEF02F04306D8A0440639503A1078
:1005E400D8A4F7EF02F0F9EF02F0FFEF02F0000EEB
:1005F400346E2B0E336E05EF03F0000E346E2D0EA9
:10060400336E05EF03F09F0E4324D96E000E442091
:10061400DA6E33C0DFFF0FEF03F021C016F022C003
:1006240017F09F0E4324186E000E4420196E37C035
:100634001AF038C01BF0E9EC08F016C021F017C01E
:1006440022F025EF03F0120047C0D9FF48C0DAFFBB
:10065400DECFF6FFDDCFF7FF0800F550250AD8A45A
:1006640036EF03F038EF03F042EF04F047C0D9FF50
:1006740048C0DAFFDE2A000EDD22000E00019D6F65
:10068400000E9C6F9CC057F09DC058F0556856688A
:1006940047C0D9FF48C0DAFFDECFF6FFDDCFF7FF52
:1006A4000800F550640AD8B45AEF03F05CEF03F085
:1006B40070EF03F047C0D9FF48C0DAFFDECFF6FF82
:1006C400DDCFF7FF0800F550690AD8A46CEF03F0FA
:1006D4006EEF03F0B2EF03F070EF03F047C0D9FF01
:1006E40048C0DAFFDE2A000EDD2249C0D9FF4AC025
:1006F400DAFFDFCF4BF0020EDE26DFCF4CF0000E28
:10070400DD224BC0D9FF4CC0DAFFDECF60F0DDCF75
:1007140061F0000E61BFFF0E626F636F646F656FFF
:10072400666F676F45C021F046C022F060C023F0B9
:1007340061C024F062C025F063C026F064C027F0D5
:1007440065C028F066C029F067C02AF09AEC01F071
:1007540021C045F022C046F061EF04F061EF04F0DF
:1007640047C0D9FF48C0DAFFDECFF6FFDDCFF7FF81
:100774000800F550750AD8A4C2EF03F0C4EF03F0E3
:1007840008EF04F047C0D9FF48C0DAFFDE2A000EA4
:10079400DD2249C0D9FF4AC0DAFFDFCF4BF0020E99
:1007A400DE26DFCF4CF0000EDD224BC0D9FF4CC05B
:1007B400DAFFDECF4DF0DDCF4EF04DC068F04EC015
:1007C40069F000016A6B6B6B6C6B6D6B6E6B6F6BBE
:1007D40045C021F046C022F068C023F069C024F06F
:1007E4006AC025F06BC026F06CC027F06DC028F0FD
:1007F4006EC029F06FC02AF062EC04F021C045F00D
:1008040022C046F061EF04F061EF04F047C0D9FF65
:1008140048C0DAFFDECFF6FFDDCFF7FF0800F55062
:10082400250AD8A418EF04F01AEF04F033EF04F00B
:1008340047C0D9FF48C0DAFFDE2A000EDD22000ED1
:10084400076E250E066E45C008F046C009F07AEC26
:1008540008F0000E466E010E456E61EF04F061EF84
:1008640004F047C0D9FF48C0DAFFDE2A000EDD22BB
:10087400000E466E000E456E61EF04F061EF04F069
:1008840047C0D9FF48C0DAFFDECFF6FFDDCFF7FF60
:100894000800F550066E076A45C008F046C009F026
:1008A4007AEC08F047C0D9FF48C0DAFFDE2A000E10
:1008B400DD22000E466E010E456E61EF04F012005B
:1008C40056BE67EF04F069EF04F06CEF04F0579242
:1008D4006CEF04F056BE79EF04F0565006E155046F
:1008E400D8B077EF04F079EF04F07FEF04F0000E56
:1008F400346E010E336E83EF04F055C033F056C0EE
:1009040034F09CC035F09DC036F023C037F024C0CD
:1009140038F025C039F026C03AF027C03BF028C093
:100924003CF029C03DF02AC03EF0000E406E1F0E80
:100934003F6E9F0E3F24D96E000E4020DA6E000EEB
:10094400DF6E1DEF05F03F06D8A040069F0E3F2442
:10095400D96E000E4020DA6E37C006F038C007F0BA
:1009640039C008F03AC009F03BC00AF03CC00BF0B3
:100974003DC00CF03EC00DF00A0E0E6E000E0F6E60
:10098400000E106E000E116E000E126E000E136E2D
:10099400000E146E000E156E08EC08F006C02BF065
:1009A40007C02CF008C02DF009C02EF00AC02FF0AB
:1009B4000BC030F00CC031F00DC032F02B50300FB2
:1009C400DF6E3306D8A034063506D8A0360637C005
:1009D40006F038C007F039C008F03AC009F03BC04F
:1009E4000AF03CC00BF03DC00CF03EC00DF00A0E06
:1009F4000E6E000E0F6E000E106E000E116E000EC5
:100A0400126E000E136E000E146E000E156E11ECB5
:100A140007F006C037F007C038F008C039F009C045
:100A24003AF00AC03BF00BC03CF00CC03DF00DC0E6
:100A34003EF01DEF05F03F504010D8B424EF05F010
:100A440026EF05F05CEF05F03750381039103A10F6
:100A54003B103C103D103E10D8A433EF05F035EFA9
:100A640005F0A5EF04F034BE42EF05F0345006E182
:100A74003304D8B040EF05F042EF05F0A5EF04F0E1
:100A840036BE4DEF05F0365008E13504D8A04DEFE1
:100A940005F04FEF05F05CEF05F057B254EF05F0A9
:100AA40056EF05F0A5EF04F05CEF05F05CEF05F000
:100AB4005CEF05F021C016F022C017F09F0E3F2412
:100AC400186E000E4020196E35C01AF036C01BF0A7
:100AD400E9EC08F016C021F017C022F072EF05F01F
:100AE4001200000E176E15BE7CEF05F07AEF05F0CC
:100AF40090EF05F0151E141E131E121E111E101E5B
:100B04000F1E0E6C000E0F2210221122122213222D
:100B140014221522010E176E90EF05F00DBE97EF0B
:100B240005F095EF05F0ABEF05F00D1E0C1E0B1E46
:100B34000A1E091E081E071E066C000E0722082244
:100B440009220A220B220C220D22010E171AABEFE6
:100B540005F020EE18F0070EDE6AE806FDE20E50FE
:100B64000F10101011101210131014101510D8B407
:100B7400BEEF05F0C0EF05F01EEF06F0010E166E95
:100B8400D0EF05F0D8900E360F36103611361236E7
:100B9400133614361536162AD0EF05F015AED5EFF8
:100BA40005F0D7EF05F0C4EF05F0DBEF05F0DBEF60
:100BB40005F0D890183619361A361B361C361D36F1
:100BC4001E361F360E50065C0F500758105008583A
:100BD4001150095812500A5813500B5814500C58FD
:100BE40015500D58D8A0F9EF05F0FBEF05F00EEF06
:100BF40006F00E50065E0F50075A1050085A115056
:100C0400095A12500A5A13500B5A14500C5A1550C0
:100C14000D5A18800EEF06F0D890153214321332A4
:100C24001232113210320F320E32162EDBEF05F073
:100C34001EEF06F01EEF06F01750D8B424EF06F0AE
:100C440026EF06F038EF06F01F1E1E1E1D1E1C1E8A
:100C54001B1E1A1E191E186C000E19221A221B22A2
:100C64001C221D221E221F2238EF06F018C006F097
:100C740019C007F01AC008F01BC009F01CC00AF024
:100C84001DC00BF01EC00CF01FC00DF04AEF06F0A3
:100C94001200000E176E0DBE54EF06F052EF06F070
:100CA40068EF06F00D1E0C1E0B1E0A1E091E081E00
:100CB400071E066C000E0722082209220A220B22B4
:100CC4000C220D22010E176E68EF06F015BE6FEFB1
:100CD40006F06DEF06F081EF06F0151E141E131ECC
:100CE400121E111E101E0F1E0E6C000E0F2210225B
:100CF4001122122213221422152281EF06F00E5023
:100D04000F10101011101210131014101510D8B465
:100D14008EEF06F090EF06F0E4EF06F0010E166E8B
:100D2400A0EF06F0D8900E360F3610361136123674
:100D3400133614361536162AA0EF06F015AEA5EFB5
:100D440006F0A7EF06F094EF06F0ABEF06F0ABEF7A
:100D540006F00E50065C0F500758105008581150FA
:100D6400095812500A5813500B5814500C58155067
:100D74000D58D8A0C0EF06F0C2EF06F0D4EF06F08D
:100D84000E50065E0F50075A1050085A1150095A57
:100D940012500A5A13500B5A14500C5A15500D5A2B
:100DA400D4EF06F0D89015321432133212321132C5
:100DB40010320F320E32162EABEF06F0E4EF06F0CF
:100DC400E4EF06F01750D8B4EAEF06F0ECEF06F0C3
:100DD400FEEF06F00D1E0C1E0B1E0A1E091E081E39
:100DE400071E066C000E0722082209220A220B2283
:100DF4000C220D22FEEF06F006C006F007C007F035
:100E040008C008F009C009F00AC00AF00BC00BF0D2
:100E14000CC00CF00DC00DF010EF07F0120020EE26
:100E240016F0070EDE6AE806FDE20E500F101010F1
:100E340011101210131014101510D8B424EF07F069
:100E440026EF07F082EF07F0010E1E6E36EF07F073
:100E5400D8900E360F361036113612361336143635
:100E640015361E2A36EF07F015AE3BEF07F03DEFBF
:100E740007F02AEF07F041EF07F041EF07F0D890B1
:100E840016361736183619361A361B361C361D36E2
:100E94000E50065C0F50075810500858115009584E
:100EA40012500A5813500B5814500C5815500D5822
:100EB400D8A05FEF07F061EF07F074EF07F00E5072
:100EC400065E0F50075A1050085A1150095A125012
:100ED4000A5A13500B5A14500C5A15500D5A1680B6
:100EE40074EF07F0D89015321432133212321132E3
:100EF40010320F320E321E2E41EF07F082EF07F050
:100F040016C006F017C007F018C008F019C009F0A1
:100F14001AC00AF01BC00BF01CC00CF01DC00DF071
:100F24001200000E896E000E8B6E000E8C6E000E89
:100F3400926E000E946E000E956E270E0A6EF50EDC
:100F4400E82EFED70A2EFCD700F0030E62EC0AF05E
:100F54000D0E0A6EFC0EE82EFED70A2EFCD7030EE9
:100F640062EC0AF0850EE82EFED700F0030E62EC68
:100F74000AF0210EE82EFED700F0020E62EC0AF011
:100F8400210EE82EFED700F0000E086E280EE1ECCC
:100F94000BF0060E0A6E300EE82EFED70A2EFCD792
:100FA40000D0000E086E080EE1EC0BF0060E0A6E7F
:100FB400300EE82EFED70A2EFCD700D0000E086EA5
:100FC400010EE1EC0BF0060E0A6E300EE82EFED791
:100FD4000A2EFCD700D0000E086E060EE1EC0BF0D2
:100FE400060E0A6E300EE82EFED70A2EFCD700D06D
:100FF400000E086E0C0EE1EC0BF0060E0A6E300EBD
:10100400E82EFED70A2EFCD700D012000E500F1087
:10101400101011101210131014101510D8B415EF6D
:1010240008F017EF08F069EF08F0010E166E27EFCD
:1010340008F0D8900E360F361036113612361336A5
:1010440014361536162A27EF08F015AE2CEF08F0E3
:101054002EEF08F01BEF08F032EF08F032EF08F043
:101064000E50065C0F50075810500858115009587C
:1010740012500A5813500B5814500C5815500D5850
:10108400D8A047EF08F049EF08F05BEF08F00E50E6
:10109400065E0F50075A1050085A1150095A125040
:1010A4000A5A13500B5A14500C5A15500D5A5BEF30
:1010B40008F0D89015321432133212321132103231
:1010C4000F320E32162E32EF08F069EF08F006C028
:1010D40006F007C007F008C008F009C009F00AC00C
:1010E4000AF00BC00BF00CC00CF00DC00DF0120098
:1010F40008500910D8B481EF08F083EF08F08EEFA0
:1011040008F008500910D8A48AEF08F08CEF08F012
:1011140093EF08F08EEF08F0065046EC0CF0E8EF81
:1011240008F020EE04F00850D9260950DA22DE50E7
:10113400DE10D8B4A0EF08F0A2EF08F0BFEF08F07B
:1011440020EE04F00850D9260950DA2210EE02F0FD
:101154000850E1260950E222DE50E65CE650800A9F
:101164000E6EDE50800A0E58D8B0BBEF08F0BDEF0B
:1011740008F0E8EF08F0BFEF08F020EE02F00850A6
:10118400D9260950DA22DECF0AF0DDCF0BF008C0F1
:10119400D9FF09C0DAFFDECF0CF0DDCF0DF00A5025
:1011A4000C24D96E0B500D20DA6E06C0DFFF20EE42
:1011B40002F00850D9260950DA22DE2A000EDD2278
:1011C400E8EF08F0E8EF08F0E8EF08F0120057A0A5
:1011D400EEEF08F0F0EF08F0FCEF08F018C00FF0A5
:1011E40019C010F016C011F017C012F077EC0BF014
:1011F400FCEF08F01BBE01EF09F003EF09F009EF63
:1012040009F01AC01FF01BC020F00DEF09F0000E0A
:10121400206E000E1F6E000E1E6E000E1D6E21EF5E
:1012240009F0000E076E200E066E16C008F017C0F7
:1012340009F07AEC08F01D4A1E2A21EF09F01F502C
:101244001D5C1E50800A1C6E2050800A1C58D8A0B9
:101254002EEF09F030EF09F013EF09F057B035EF36
:1012640009F037EF09F043EF09F018C00FF019C087
:1012740010F016C011F017C012F077EC0BF043EF2A
:1012840009F018C006F019C007F000EC0BF01F506D
:101294000624166E20500720176E51EF09F0120035
:1012A4000BEC0CF0010E50EC0BF0850E0001726F8C
:1012B400000E736F290E746F030E756F82C0D9FF11
:1012C40083C0DAFFDECF76F0DDCF77F0D1EC0AF021
:1012D400850E0A6E000E0B6EBFEC0BF0020E50EC86
:1012E4000BF0850E0001726F000E736F1F0E746F8A
:1012F400030E756F20EE02F08251D9268351DA2253
:10130400DECF76F0DDCF77F0D1EC0AF0850E0A6EF1
:10131400000E0B6EBFEC0BF0820E0001846FDD0E2D
:10132400E82EFED7842FFCD700D0820E0001846FF4
:10133400DD0EE82EFED7842FFCD700D0820E0001EC
:10134400846FDD0EE82EFED7842FFCD700D0820EEA
:101354000001846FDD0EE82EFED7842FFCD700D069
:101364001200000EB86E000EB96E720ED36EBBEF93
:1013740009F0D3A4C0EF09F0C2EF09F0BBEF09F004
:10138400C4EF09F0000E00019E6F93EC07F019EC16
:101394000CF026EC0CF03EEC0CF0E2EF09F0E2EF7E
:1013A40009F0960E066E000E076E29EC0BF0960EF1
:1013B4000001826F000E836F52EC09F0E2EF09F036
:1013C40000019E51D8B4E9EF09F0EBEF09F0D3EF37
:1013D40009F0EDEF09F09E05D8A4F3EF09F0F5EF5D
:1013E40009F0E2EF09F0BF0E0B6E000E0C6EBF0E9B
:1013F4000D6E000E0E6E10EC0AF01A0E0001956FC1
:10140400F80EE82EFED7952FFCD700F0E2EF09F096
:10141400E2EF09F0E2EF09F048EF00F00BEC0CF01A
:10142400010E50EC0BF01BEF0AF00B4A0C2A1BEFD9
:101434000AF00BC0D9FF0CC0DAFF030EDE18D8A4E3
:1014440026EF0AF028EF0AF017EF0AF03FEF0AF050
:101454003FEF0AF0010E086E20EE01F00D50D92680
:101464000E50DA22DF50E1EC0BF0210EE82EFED70D
:1014740000F00D4A0E2A3FEF0AF0FE0E0F6EFF0E2B
:10148400106E0BC011F00CC012F00F50112610504A
:101494001222010E0D24136E000E0E20146E115034
:1014A400135C12501458D8A05AEF0AF05CEF0AF0FB
:1014B4002CEF0AF05EEF0AF0020E50EC0BF0120073
:1014C400076E07C006F0010E06160646825006187F
:1014D400FD0B0618826E07C006F0D8900632010E86
:1014E40006160646064682500618FB0B0618826E40
:1014F40007C006F0D8900632D8900632010E0616C0
:1015040083500618FE0B0618836E07C006F0D890A9
:101514000632D8900632D8900632010E06160646D8
:1015240083500618FD0B0618836E33EC0CF0030E83
:10153400E82EFED700F0120051C070F052C071F0D6
:10154400000E00019B6F000E9A6FBEEF0AF04FC0B1
:1015540045F050C046F0700E476E000E486E53C002
:1015640049F054C04AF026EC03F0455000019A2794
:1015740046509B23BEEF0AF070C0F6FF71C0F7FF20
:101584000800F5500009D8A4CAEF0AF0CCEF0AF01D
:10159400A9EF0AF09AC04FF09BC050F01200760EEB
:1015A40000017A6F000E7B6F72C07CF073C07DF017
:1015B400000E7F6F000E7E6F000E816F000E806F35
:1015C4007C0E4F6E000E506E74C051F075C052F018
:1015D4007A0E536E000E546E9EEC0AF04FC078F0F3
:1015E40050C079F000017E517225D96E7F5173216C
:1015F400DA6E000EDF6EFFEF0AF0120006C00AF08A
:1016040007C00BF00AEF0BF0064A072A0AEF0BF0AB
:1016140006C0D9FF07C0DAFFDF50D8A414EF0BF0DF
:1016240016EF0BF006EF0BF018EF0BF00AC008F002
:101634000BC009F0081E091E084A092A065008248E
:10164400066E07500920076E28EF0BF01200665053
:1016540067CF08F0096A08C009F0086A0812000E8A
:10166400091206C0D9FF07C0DAFF08C0DEFF09C0AF
:10167400DDFF685069CF08F0096A08C009F0086AFC
:101684000812000E091220EE02F00650D926075067
:10169400DA2208C0DEFF09C0DDFF12000A6E0A0468
:1016A400D8A457EF0BF059EF0BF060EF0BF0000EDE
:1016B400086E800EE1EC0BF072EF0BF0020E0A18CC
:1016C400D8A467EF0BF069EF0BF072EF0BF0000E8C
:1016D400086EC00EE1EC0BF072EF0BF072EF0BF042
:1016E400210EE82EFED700F01200000E156E000E3B
:1016F400146E8AEF0BF013C006F0076A11C008F0ED
:1017040012C009F07AEC08F0144A152A8AEF0BF09B
:1017140014500F24D96E15501020DA6EDF50136E5A
:101724001350D8A498EF0BF09AEF0BF07DEF0BF069
:101734009CEF0BF0120019BEAAEF0BF0195006E152
:101744001804D8B0A8EF0BF0AAEF0BF0B8EF0BF029
:1017540018C01AF019C01BF01A1E1B1E1A4A1B2AA5
:101764001AC018F01BC019F0BEEF0BF018C018F027
:1017740019C019F0BEEF0BF01200D2EF0BF0010EFE
:10178400086E0AC0D9FF0BC0DAFFDF50E1EC0BF0A2
:101794000A4A0B2A210EE82EFED700F0D2EF0BF0F6
:1017A4000AC0D9FF0BC0DAFFDF50D8A4DCEF0BF07E
:1017B400DEEF0BF0C1EF0BF0E0EF0BF01200096E5F
:1017C40008B002D0809C01D0808C09380F0B62ECE9
:1017D4000AF0060EE82EFED700D0095062EC0AF09B
:1017E400210EE82EFED700F0120000EE9AF0360E1D
:1017F400EE6AE806FDE1596A586A576A566A556AFC
:101804005A905A92000EF86E030EF76E0001B3EF71
:1018140009F0000E086E010EE1EC0BF0060E0A6EE4
:10182400300EE82EFED70A2EFCD700D01200000E90
:10183400896E0C0E926E460E636E460E626E090E33
:10184400B76E180E606E12009450C009946ECC0EE0
:10185400AF6E000EB06EAA86AC84AB88AB8EAC8A39
:1018640012008280030EE82EFED700F08290030E51
:10187400E82EFED700F01200AE50AE50AE509D8A56
:0A188400F28CF28EF08812001200C0
:020000040020DA
:08000000FFFFFFFFFFFFFFFF00
:020000040030CA
:0E000000FFC80F3F3C1D81FF0FC00FE00F40F7
:00000001FF
